{
  "address": "0xD9D092E5B1C6F2B50de5f52A4D00ad97E21A64f5",
  "abi": [
    {
      "inputs": [
        {
          "internalType": "address",
          "name": "admin",
          "type": "address"
        }
      ],
      "stateMutability": "nonpayable",
      "type": "constructor"
    },
    {
      "anonymous": false,
      "inputs": [
        {
          "indexed": true,
          "internalType": "bytes32",
          "name": "role",
          "type": "bytes32"
        },
        {
          "indexed": true,
          "internalType": "bytes32",
          "name": "previousAdminRole",
          "type": "bytes32"
        },
        {
          "indexed": true,
          "internalType": "bytes32",
          "name": "newAdminRole",
          "type": "bytes32"
        }
      ],
      "name": "RoleAdminChanged",
      "type": "event"
    },
    {
      "anonymous": false,
      "inputs": [
        {
          "indexed": true,
          "internalType": "bytes32",
          "name": "role",
          "type": "bytes32"
        },
        {
          "indexed": true,
          "internalType": "address",
          "name": "account",
          "type": "address"
        },
        {
          "indexed": true,
          "internalType": "address",
          "name": "sender",
          "type": "address"
        }
      ],
      "name": "RoleGranted",
      "type": "event"
    },
    {
      "anonymous": false,
      "inputs": [
        {
          "indexed": true,
          "internalType": "bytes32",
          "name": "role",
          "type": "bytes32"
        },
        {
          "indexed": true,
          "internalType": "address",
          "name": "account",
          "type": "address"
        },
        {
          "indexed": true,
          "internalType": "address",
          "name": "sender",
          "type": "address"
        }
      ],
      "name": "RoleRevoked",
      "type": "event"
    },
    {
      "inputs": [],
      "name": "DEFAULT_ADMIN_ROLE",
      "outputs": [
        {
          "internalType": "bytes32",
          "name": "",
          "type": "bytes32"
        }
      ],
      "stateMutability": "view",
      "type": "function"
    },
    {
      "inputs": [],
      "name": "OPERATOR_ROLE",
      "outputs": [
        {
          "internalType": "bytes32",
          "name": "",
          "type": "bytes32"
        }
      ],
      "stateMutability": "view",
      "type": "function"
    },
    {
      "inputs": [
        {
          "internalType": "bytes32",
          "name": "actionId",
          "type": "bytes32"
        },
        {
          "internalType": "address",
          "name": "account",
          "type": "address"
        },
        {
          "internalType": "address",
          "name": "",
          "type": "address"
        }
      ],
      "name": "canPerform",
      "outputs": [
        {
          "internalType": "bool",
          "name": "",
          "type": "bool"
        }
      ],
      "stateMutability": "view",
      "type": "function"
    },
    {
      "inputs": [
        {
          "internalType": "bytes32",
          "name": "role",
          "type": "bytes32"
        }
      ],
      "name": "getRoleAdmin",
      "outputs": [
        {
          "internalType": "bytes32",
          "name": "",
          "type": "bytes32"
        }
      ],
      "stateMutability": "view",
      "type": "function"
    },
    {
      "inputs": [
        {
          "internalType": "bytes32",
          "name": "role",
          "type": "bytes32"
        },
        {
          "internalType": "uint256",
          "name": "index",
          "type": "uint256"
        }
      ],
      "name": "getRoleMember",
      "outputs": [
        {
          "internalType": "address",
          "name": "",
          "type": "address"
        }
      ],
      "stateMutability": "view",
      "type": "function"
    },
    {
      "inputs": [
        {
          "internalType": "bytes32",
          "name": "role",
          "type": "bytes32"
        }
      ],
      "name": "getRoleMemberCount",
      "outputs": [
        {
          "internalType": "uint256",
          "name": "",
          "type": "uint256"
        }
      ],
      "stateMutability": "view",
      "type": "function"
    },
    {
      "inputs": [
        {
          "internalType": "bytes32",
          "name": "role",
          "type": "bytes32"
        },
        {
          "internalType": "address",
          "name": "account",
          "type": "address"
        }
      ],
      "name": "grantRole",
      "outputs": [],
      "stateMutability": "nonpayable",
      "type": "function"
    },
    {
      "inputs": [
        {
          "internalType": "bytes32[]",
          "name": "roles",
          "type": "bytes32[]"
        },
        {
          "internalType": "address",
          "name": "account",
          "type": "address"
        }
      ],
      "name": "grantRoles",
      "outputs": [],
      "stateMutability": "nonpayable",
      "type": "function"
    },
    {
      "inputs": [
        {
          "internalType": "bytes32[]",
          "name": "roles",
          "type": "bytes32[]"
        },
        {
          "internalType": "address[]",
          "name": "accounts",
          "type": "address[]"
        }
      ],
      "name": "grantRolesToMany",
      "outputs": [],
      "stateMutability": "nonpayable",
      "type": "function"
    },
    {
      "inputs": [
        {
          "internalType": "bytes32",
          "name": "role",
          "type": "bytes32"
        },
        {
          "internalType": "address",
          "name": "account",
          "type": "address"
        }
      ],
      "name": "hasRole",
      "outputs": [
        {
          "internalType": "bool",
          "name": "",
          "type": "bool"
        }
      ],
      "stateMutability": "view",
      "type": "function"
    },
    {
      "inputs": [
        {
          "internalType": "bytes32",
          "name": "role",
          "type": "bytes32"
        },
        {
          "internalType": "address",
          "name": "account",
          "type": "address"
        }
      ],
      "name": "renounceRole",
      "outputs": [],
      "stateMutability": "nonpayable",
      "type": "function"
    },
    {
      "inputs": [
        {
          "internalType": "bytes32",
          "name": "role",
          "type": "bytes32"
        },
        {
          "internalType": "address",
          "name": "account",
          "type": "address"
        }
      ],
      "name": "revokeRole",
      "outputs": [],
      "stateMutability": "nonpayable",
      "type": "function"
    },
    {
      "inputs": [
        {
          "internalType": "bytes32[]",
          "name": "roles",
          "type": "bytes32[]"
        },
        {
          "internalType": "address",
          "name": "account",
          "type": "address"
        }
      ],
      "name": "revokeRoles",
      "outputs": [],
      "stateMutability": "nonpayable",
      "type": "function"
    },
    {
      "inputs": [
        {
          "internalType": "bytes32[]",
          "name": "roles",
          "type": "bytes32[]"
        },
        {
          "internalType": "address[]",
          "name": "accounts",
          "type": "address[]"
        }
      ],
      "name": "revokeRolesFromMany",
      "outputs": [],
      "stateMutability": "nonpayable",
      "type": "function"
    }
  ],
  "transactionHash": "0xf0549925b797a4e7126e4bdcfcccefa2a8b5da18dc63bbf1281b5d9ad9c46ed3",
  "args": [
    "0xCd7d47C8ec1Ea5dBF4c65Db4b21De48BD519CAB6"
  ],
  "numDeployments": 1,
  "bytecode": "0x608060405234801561001057600080fd5b50604051610e96380380610e968339818101604052602081101561003357600080fd5b5051610040600082610046565b5061013d565b6100508282610054565b5050565b6000828152602081815260409091206100769183906108cb6100b7821b17901c565b156100505760405133906001600160a01b0383169084907f2f8788117e7eff1d82e926ec794901d17c78024a50270940304540a733656f0d90600090a45050565b60006100c3838361011c565b61011257508154600180820184556000848152602080822090930180546001600160a01b0319166001600160a01b03861690811790915585549082528286019093526040902091909155610116565b5060005b92915050565b6001600160a01b031660009081526001919091016020526040902054151590565b610d4a8061014c6000396000f3fe608060405234801561001057600080fd5b50600436106100ea5760003560e01c80639be2a8841161008c578063ca15c87311610066578063ca15c8731461057d578063d547741f1461059a578063f5b541a6146105d3578063fcd7627e146105db576100ea565b80639be2a8841461040d578063a217fddf1461044e578063a73cb2ab14610456576100ea565b806336568abe116100c857806336568abe146102805780639010d07c146102b957806391d1485414610305578063988360a314610352576100ea565b806318b2cde9146100ef578063248a9ca3146102185780632f2ff15d14610247575b600080fd5b6102166004803603604081101561010557600080fd5b81019060208101813564010000000081111561012057600080fd5b82018360208201111561013257600080fd5b8035906020019184602083028401116401000000008311171561015457600080fd5b91908080602002602001604051908101604052809392919081815260200183836020028082843760009201919091525092959493602081019350359150506401000000008111156101a457600080fd5b8201836020820111156101b657600080fd5b803590602001918460208302840111640100000000831117156101d857600080fd5b919080806020026020016040519081016040528093929190818152602001838360200280828437600092019190915250929550610696945050505050565b005b6102356004803603602081101561022e57600080fd5b50356106eb565b60408051918252519081900360200190f35b6102166004803603604081101561025d57600080fd5b508035906020013573ffffffffffffffffffffffffffffffffffffffff16610700565b6102166004803603604081101561029657600080fd5b508035906020013573ffffffffffffffffffffffffffffffffffffffff16610736565b6102dc600480360360408110156102cf57600080fd5b5080359060200135610764565b6040805173ffffffffffffffffffffffffffffffffffffffff9092168252519081900360200190f35b61033e6004803603604081101561031b57600080fd5b508035906020013573ffffffffffffffffffffffffffffffffffffffff16610785565b604080519115158252519081900360200190f35b6102166004803603604081101561036857600080fd5b81019060208101813564010000000081111561038357600080fd5b82018360208201111561039557600080fd5b803590602001918460208302840111640100000000831117156103b757600080fd5b9190808060200260200160405190810160405280939291908181526020018383602002808284376000920191909152509295505050903573ffffffffffffffffffffffffffffffffffffffff16915061079d9050565b61033e6004803603606081101561042357600080fd5b5080359073ffffffffffffffffffffffffffffffffffffffff602082013581169160400135166107ce565b6102356107e2565b6102166004803603604081101561046c57600080fd5b81019060208101813564010000000081111561048757600080fd5b82018360208201111561049957600080fd5b803590602001918460208302840111640100000000831117156104bb57600080fd5b919080806020026020016040519081016040528093929190818152602001838360200280828437600092019190915250929594936020810193503591505064010000000081111561050b57600080fd5b82018360208201111561051d57600080fd5b8035906020019184602083028401116401000000008311171561053f57600080fd5b9190808060200260200160405190810160405280939291908181526020018383602002808284376000920191909152509295506107e7945050505050565b6102356004803603602081101561059357600080fd5b5035610837565b610216600480360360408110156105b057600080fd5b508035906020013573ffffffffffffffffffffffffffffffffffffffff1661084e565b610235610876565b610216600480360360408110156105f157600080fd5b81019060208101813564010000000081111561060c57600080fd5b82018360208201111561061e57600080fd5b8035906020019184602083028401116401000000008311171561064057600080fd5b9190808060200260200160405190810160405280939291908181526020018383602002808284376000920191909152509295505050903573ffffffffffffffffffffffffffffffffffffffff16915061089a9050565b6106a282518251610953565b60005b82518110156106e6576106de8382815181106106bd57fe5b60200260200101518383815181106106d157fe5b602002602001015161084e565b6001016106a5565b505050565b60009081526020819052604090206002015490565b600082815260208190526040902060020154610728906107209033610785565b6101a661095c565b610732828261096a565b5050565b61075a73ffffffffffffffffffffffffffffffffffffffff821633146101a861095c565b61073282826109d0565b600082815260208190526040812061077c9083610a36565b90505b92915050565b600082815260208190526040812061077c9083610a52565b60005b82518110156106e6576107c68382815181106107b857fe5b60200260200101518361084e565b6001016107a0565b60006107da8484610785565b949350505050565b600081565b6107f382518251610953565b60005b82518110156106e65761082f83828151811061080e57fe5b602002602001015183838151811061082257fe5b6020026020010151610700565b6001016107f6565b600081815260208190526040812061077f90610a80565b60008281526020819052604090206002015461075a9061086e9033610785565b6101a761095c565b7f97667070c54ef182b0f5858b034beac1b6f3089aa2d3188bb1e8929f4fa9b92981565b60005b82518110156106e6576108c38382815181106108b557fe5b602002602001015183610700565b60010161089d565b60006108d78383610a52565b61094b57508154600180820184556000848152602080822090930180547fffffffffffffffffffffffff00000000000000000000000000000000000000001673ffffffffffffffffffffffffffffffffffffffff86169081179091558554908252828601909352604090209190915561077f565b50600061077f565b61073281831460675b816107325761073281610a84565b600082815260208190526040902061098290826108cb565b1561073257604051339073ffffffffffffffffffffffffffffffffffffffff83169084907f2f8788117e7eff1d82e926ec794901d17c78024a50270940304540a733656f0d90600090a45050565b60008281526020819052604090206109e89082610ab1565b1561073257604051339073ffffffffffffffffffffffffffffffffffffffff83169084907ff6391f5c32d9c69d2a47ea670b442974b53935d1edc7fd64eb21e047a839171b90600090a45050565b8154600090610a48908310606461095c565b61077c8383610c5f565b73ffffffffffffffffffffffffffffffffffffffff1660009081526001919091016020526040902054151590565b5490565b610aae817f42414c0000000000000000000000000000000000000000000000000000000000610c99565b50565b73ffffffffffffffffffffffffffffffffffffffff811660009081526001830160205260408120548015610c555783547fffffffffffffffffffffffffffffffffffffffffffffffffffffffffffffffff8083019101808214610bba576000866000018281548110610b1f57fe5b600091825260209091200154875473ffffffffffffffffffffffffffffffffffffffff90911691508190889085908110610b5557fe5b600091825260208083209190910180547fffffffffffffffffffffffff00000000000000000000000000000000000000001673ffffffffffffffffffffffffffffffffffffffff94851617905592909116815260018881019092526040902090830190555b8554869080610bc557fe5b6000828152602080822083017fffffffffffffffffffffffffffffffffffffffffffffffffffffffffffffffff90810180547fffffffffffffffffffffffff000000000000000000000000000000000000000016905590920190925573ffffffffffffffffffffffffffffffffffffffff8716825260018881019091526040822091909155935061077f92505050565b600091505061077f565b6000826000018281548110610c7057fe5b60009182526020909120015473ffffffffffffffffffffffffffffffffffffffff169392505050565b7f08c379a000000000000000000000000000000000000000000000000000000000600090815260206004526007602452600a808404818106603090810160081b958390069590950190829004918206850160101b01602363ffffff0060e086901c160160181b0190930160c81b60445260e882901c90606490fdfea2646970667358221220bce89680d733c51b261159c918cd1e0e667ab6bcfcba6f70e44c47d71cd21fc464736f6c63430007010033"
}