{
  "address": "0xfBaC2c17DFBb04607969646d079f1C1C5B9A4C58",
  "abi": [
    {
      "inputs": [
        {
          "internalType": "contract IVault",
          "name": "vault",
          "type": "address"
        },
        {
          "internalType": "contract IProtocolFeePercentagesProvider",
          "name": "protocolFeeProvider",
          "type": "address"
        },
        {
          "internalType": "uint256",
          "name": "initialPauseWindowDuration",
          "type": "uint256"
        },
        {
          "internalType": "uint256",
          "name": "bufferPeriodDuration",
          "type": "uint256"
        }
      ],
      "stateMutability": "nonpayable",
      "type": "constructor"
    },
    {
      "anonymous": false,
      "inputs": [],
      "name": "FactoryDisabled",
      "type": "event"
    },
    {
      "anonymous": false,
      "inputs": [
        {
          "indexed": true,
          "internalType": "address",
          "name": "pool",
          "type": "address"
        }
      ],
      "name": "PoolCreated",
      "type": "event"
    },
    {
      "inputs": [
        {
          "internalType": "string",
          "name": "name",
          "type": "string"
        },
        {
          "internalType": "string",
          "name": "symbol",
          "type": "string"
        },
        {
          "internalType": "contract IERC20[]",
          "name": "tokens",
          "type": "address[]"
        },
        {
          "internalType": "uint256[]",
          "name": "normalizedWeights",
          "type": "uint256[]"
        },
        {
          "internalType": "contract IRateProvider[]",
          "name": "rateProviders",
          "type": "address[]"
        },
        {
          "internalType": "uint256",
          "name": "swapFeePercentage",
          "type": "uint256"
        },
        {
          "internalType": "address",
          "name": "owner",
          "type": "address"
        },
        {
          "internalType": "bytes32",
          "name": "salt",
          "type": "bytes32"
        }
      ],
      "name": "create",
      "outputs": [
        {
          "internalType": "address",
          "name": "",
          "type": "address"
        }
      ],
      "stateMutability": "nonpayable",
      "type": "function"
    },
    {
      "inputs": [],
      "name": "disable",
      "outputs": [],
      "stateMutability": "nonpayable",
      "type": "function"
    },
    {
      "inputs": [
        {
          "internalType": "bytes4",
          "name": "selector",
          "type": "bytes4"
        }
      ],
      "name": "getActionId",
      "outputs": [
        {
          "internalType": "bytes32",
          "name": "",
          "type": "bytes32"
        }
      ],
      "stateMutability": "view",
      "type": "function"
    },
    {
      "inputs": [],
      "name": "getAuthorizer",
      "outputs": [
        {
          "internalType": "contract IAuthorizer",
          "name": "",
          "type": "address"
        }
      ],
      "stateMutability": "view",
      "type": "function"
    },
    {
      "inputs": [],
      "name": "getCreationCode",
      "outputs": [
        {
          "internalType": "bytes",
          "name": "",
          "type": "bytes"
        }
      ],
      "stateMutability": "view",
      "type": "function"
    },
    {
      "inputs": [],
      "name": "getCreationCodeContracts",
      "outputs": [
        {
          "internalType": "address",
          "name": "contractA",
          "type": "address"
        },
        {
          "internalType": "address",
          "name": "contractB",
          "type": "address"
        }
      ],
      "stateMutability": "view",
      "type": "function"
    },
    {
      "inputs": [],
      "name": "getPauseConfiguration",
      "outputs": [
        {
          "internalType": "uint256",
          "name": "pauseWindowDuration",
          "type": "uint256"
        },
        {
          "internalType": "uint256",
          "name": "bufferPeriodDuration",
          "type": "uint256"
        }
      ],
      "stateMutability": "view",
      "type": "function"
    },
    {
      "inputs": [],
      "name": "getProtocolFeePercentagesProvider",
      "outputs": [
        {
          "internalType": "contract IProtocolFeePercentagesProvider",
          "name": "",
          "type": "address"
        }
      ],
      "stateMutability": "view",
      "type": "function"
    },
    {
      "inputs": [],
      "name": "getVault",
      "outputs": [
        {
          "internalType": "contract IVault",
          "name": "",
          "type": "address"
        }
      ],
      "stateMutability": "view",
      "type": "function"
    },
    {
      "inputs": [],
      "name": "isDisabled",
      "outputs": [
        {
          "internalType": "bool",
          "name": "",
          "type": "bool"
        }
      ],
      "stateMutability": "view",
      "type": "function"
    },
    {
      "inputs": [
        {
          "internalType": "address",
          "name": "pool",
          "type": "address"
        }
      ],
      "name": "isPoolFromFactory",
      "outputs": [
        {
          "internalType": "bool",
          "name": "",
          "type": "bool"
        }
      ],
      "stateMutability": "view",
      "type": "function"
    }
  ],
  "transactionHash": "0xb6b3a56495adfbbf333c7d1e3eb9cfe51dc34a2276f5f199693aa3a0f3627244",
  "args": [
    "0x872dA70Af4B8C849b9d07D06D30671419527448D",
    "0x1CB3f78e58C7a73952d3823bADe47DD07a489272",
    7776000,
    2592000
  ],
  "numDeployments": 1,
  "solcInputHash": "949c075480c05c7ca213aad809623f7c",
  "bytecode": "0x6101c06040523480156200001257600080fd5b5060405162008f9a38038062008f9a83398101604081905262000035916200027a565b83838383604051806020016200004b906200026c565b601f1982820381018352601f9091011660405280518390839087903090859060006002820460a081905280830360e08190528185529091508360006200009e82826200015b602090811b6200051b17901c565b60601b6001600160601b03191660805250828501805183825260019190620000d382846200015b602090811b6200051b17901c565b6001600160601b0319606091821b811660c052979094529052506101009590955250509290911b909116610120525062000117630163f500831115610194620001e1565b6200012b6276a700821115610195620001e1565b6101408290526101605242016101805250505060601b6001600160601b0319166101a05250620002dc9350505050565b600080826200018b577f602038038060206000396000f3fefefefefefefefefefefefefefefefefefefe620001ad565b7f60fe600053602038038060206001396001016000f3fefefefefefefefefefefe5b9050835181855260208101856000f09085529150620001da6001600160a01b03831615156101ac620001e1565b5092915050565b81620001f257620001f281620001f6565b5050565b62000208816210905360ea1b6200020b565b50565b62461bcd60e51b600090815260206004526007602452600a808404818106603090810160081b958390069590950190829004918206850160101b01602363ffffff0060e086901c160160181b0190930160c81b60445260e882901c90606490fd5b617bca80620013d083390190565b6000806000806080858703121562000290578384fd5b84516200029d81620002c6565b6020860151909450620002b081620002c6565b6040860151606090960151949790965092505050565b6001600160a01b03811681146200020857600080fd5b60805160601c60a05160c05160601c60e051610100516101205160601c6101405161016051610180516101a05160601c61106c62000364600039806103fc5250806102e0528061030952508061032d525050806104725250806104225250806105b25250806101e3528061062e5250806105d35250806101c2528061060a525061106c6000f3fe608060405234801561001057600080fd5b50600436106100c85760003560e01c80636634b75311610081578063851c1bb31161005b578063851c1bb3146101715780638d928af814610191578063aaabadc514610199576100c8565b80636634b753146101415780636c57f5a914610161578063739238d614610169576100c8565b80632182c8fe116100b25780632182c8fe146101015780632da47c40146101215780632f2770db14610137576100c8565b8062c194db146100cd578063174481fa146100eb575b600080fd5b6100d56101a1565b6040516100e29190610e8c565b60405180910390f35b6100f36101c0565b6040516100e2929190610e25565b61011461010f366004610be1565b610206565b6040516100e29190610e04565b6101296102da565b6040516100e2929190610fbf565b61013f610361565b005b61015461014f366004610b49565b6103c6565b6040516100e29190610e4c565b6101546103f1565b6101146103fa565b61018461017f366004610b85565b61041e565b6040516100e29190610e57565b610114610470565b610114610494565b60606101bb604051806020016040528060008152506105aa565b905090565b7f00000000000000000000000000000000000000000000000000000000000000007f00000000000000000000000000000000000000000000000000000000000000009091565b60008060006102136102da565b915091506102cb6040518060e001604052808d81526020018c81526020018b81526020018a81526020018981526020018b5167ffffffffffffffff8111801561025b57600080fd5b50604051908082528060200260200182016040528015610285578160200160208202803683370190505b508152602001889052610296610470565b61029e6103fa565b85858a6040516020016102b696959493929190610e9f565b60405160208183030381529060405285610683565b9b9a5050505050505050505050565b600080427f000000000000000000000000000000000000000000000000000000000000000081101561035357807f00000000000000000000000000000000000000000000000000000000000000000392507f0000000000000000000000000000000000000000000000000000000000000000915061035c565b60009250600091505b509091565b61036961071b565b610371610764565b600180547fffffffffffffffffffffffffffffffffffffffffffffffffffffffffffffff0016811790556040517f432acbfd662dbb5d8b378384a67159b47ca9d0f1b79f97cf64cf8585fa362d5090600090a1565b73ffffffffffffffffffffffffffffffffffffffff1660009081526020819052604090205460ff1690565b60015460ff1690565b7f000000000000000000000000000000000000000000000000000000000000000090565b60007f000000000000000000000000000000000000000000000000000000000000000082604051602001610453929190610dd4565b604051602081830303815290604052805190602001209050919050565b7f000000000000000000000000000000000000000000000000000000000000000090565b600061049e610470565b73ffffffffffffffffffffffffffffffffffffffff1663aaabadc56040518163ffffffff1660e01b815260040160206040518083038186803b1580156104e357600080fd5b505afa1580156104f7573d6000803e3d6000fd5b505050506040513d601f19601f820116820180604052508101906101bb9190610bc5565b60008082610549577f602038038060206000396000f3fefefefefefefefefefefefefefefefefefefe61056b565b7f60fe600053602038038060206001396001016000f3fefefefefefefefefefefe5b9050835181855260208101856000f090855291506105a373ffffffffffffffffffffffffffffffffffffffff831615156101ac610779565b5092915050565b8051604080517f00000000000000000000000000000000000000000000000000000000000000007f0000000000000000000000000000000000000000000000000000000000000000818101858101848101602090810190965280855293957f00000000000000000000000000000000000000000000000000000000000000009592947f000000000000000000000000000000000000000000000000000000000000000094938801866000828a3c846001888301883c506020898101908985010161067581838661078b565b505050505050505050919050565b600061068d610764565b60006106998484610805565b73ffffffffffffffffffffffffffffffffffffffff811660008181526020819052604080822080547fffffffffffffffffffffffffffffffffffffffffffffffffffffffffffffff001660011790555192935090917f83a48fbcfc991335314e74d0496aab6a1987e992ddc85dddbcc4d6dd6ef2e9fc9190a290505b92915050565b600061074a6000357fffffffff000000000000000000000000000000000000000000000000000000001661041e565b9050610761610759823361084f565b610191610779565b50565b61077761076f6103f1565b1560d3610779565b565b8161078757610787816108ec565b5050565b5b602081106107c95781518352602092830192909101907fffffffffffffffffffffffffffffffffffffffffffffffffffffffffffffffe00161078c565b905182516020929092036101000a7fffffffffffffffffffffffffffffffffffffffffffffffffffffffffffffffff0180199091169116179052565b60006060610812846105aa565b90506000838251602084016000f5905073ffffffffffffffffffffffffffffffffffffffff8116610847573d6000803e3d6000fd5b949350505050565b6000610859610494565b73ffffffffffffffffffffffffffffffffffffffff16639be2a8848484306040518463ffffffff1660e01b815260040161089593929190610e60565b60206040518083038186803b1580156108ad57600080fd5b505afa1580156108c1573d6000803e3d6000fd5b505050506040513d601f19601f820116820180604052508101906108e59190610b65565b9392505050565b7f08c379a000000000000000000000000000000000000000000000000000000000600090815260206004526007602452600a808304818106603090810160081b83860601918390049283060160101b016642414c230000300160c81b604452610761917f42414c0000000000000000000000000000000000000000000000000000000000906242414c90606490fd5b803561071581611014565b600082601f830112610996578081fd5b81356109a96109a482610ff4565b610fcd565b8181529150602080830190848101818402860182018710156109ca57600080fd5b60005b848110156109f25781356109e081611014565b845292820192908201906001016109cd565b505050505092915050565b600082601f830112610a0d578081fd5b8135610a1b6109a482610ff4565b818152915060208083019084810181840286018201871015610a3c57600080fd5b60005b848110156109f2578135610a5281611014565b84529282019290820190600101610a3f565b600082601f830112610a74578081fd5b8135610a826109a482610ff4565b818152915060208083019084810181840286018201871015610aa357600080fd5b60005b848110156109f257813584529282019290820190600101610aa6565b600082601f830112610ad2578081fd5b813567ffffffffffffffff811115610ae8578182fd5b610b1960207fffffffffffffffffffffffffffffffffffffffffffffffffffffffffffffffe0601f84011601610fcd565b9150808252836020828501011115610b3057600080fd5b8060208401602084013760009082016020015292915050565b600060208284031215610b5a578081fd5b81356108e581611014565b600060208284031215610b76578081fd5b815180151581146108e5578182fd5b600060208284031215610b96578081fd5b81357fffffffff00000000000000000000000000000000000000000000000000000000811681146108e5578182fd5b600060208284031215610bd6578081fd5b81516108e581611014565b600080600080600080600080610100898b031215610bfd578384fd5b883567ffffffffffffffff80821115610c14578586fd5b610c208c838d01610ac2565b995060208b0135915080821115610c35578586fd5b610c418c838d01610ac2565b985060408b0135915080821115610c56578586fd5b610c628c838d01610986565b975060608b0135915080821115610c77578586fd5b610c838c838d01610a64565b965060808b0135915080821115610c98578586fd5b50610ca58b828c016109fd565b94505060a08901359250610cbc8a60c08b0161097b565b915060e089013590509295985092959890939650565b73ffffffffffffffffffffffffffffffffffffffff169052565b6000815180845260208085019450808401835b83811015610d3157815173ffffffffffffffffffffffffffffffffffffffff1687529582019590820190600101610cff565b509495945050505050565b6000815180845260208085019450808401835b83811015610d3157815187529582019590820190600101610d4f565b60008151808452815b81811015610d9057602081850181015186830182015201610d74565b81811115610da15782602083870101525b50601f017fffffffffffffffffffffffffffffffffffffffffffffffffffffffffffffffe0169290920160200192915050565b9182527fffffffff0000000000000000000000000000000000000000000000000000000016602082015260240190565b73ffffffffffffffffffffffffffffffffffffffff91909116815260200190565b73ffffffffffffffffffffffffffffffffffffffff92831681529116602082015260400190565b901515815260200190565b90815260200190565b92835273ffffffffffffffffffffffffffffffffffffffff918216602084015216604082015260600190565b6000602082526108e56020830184610d6b565b600060c08252875160e060c0840152610ebc6101a0840182610d6b565b905060208901517fffffffffffffffffffffffffffffffffffffffffffffffffffffffffffffff40808584030160e0860152610ef88383610d6b565b925060408b015191508085840301610100860152610f168383610cec565b925060608b015191508085840301610120860152610f348383610d3c565b925060808b015191508085840301610140860152610f528383610cec565b925060a08b01519150808584030161016086015250610f718282610cec565b60c08b01516101808601529250610f8e9150506020830188610cd2565b610f9b6040830187610cd2565b846060830152836080830152610fb460a0830184610cd2565b979650505050505050565b918252602082015260400190565b60405181810167ffffffffffffffff81118282101715610fec57600080fd5b604052919050565b600067ffffffffffffffff82111561100a578081fd5b5060209081020190565b73ffffffffffffffffffffffffffffffffffffffff8116811461076157600080fdfea2646970667358221220c879cdaf10c3ac81493e7717c99e9a73f8cd4a7149e017701faaafde79a81b7f64736f6c634300070100336106606040523480156200001257600080fd5b5060405162007bca38038062007bca833981016040819052620000359162001598565b856040015151866080015185604051806060016040528060008152602001600281526020016003815250888a600001518b602001518c604001518d60a001518e60c001518c8c8c600089875160021480156200008f575081155b6200009c5760016200009f565b60025b8a8a8a8a8a8a8a8a8983838a8a8e86336001600160a01b031660001b8480604051806040016040528060018152602001603160f81b81525087878160039080519060200190620000f192919062001262565b5080516200010790600490602084019062001262565b50506005805460ff19166012179055508151602092830120608052805191012060a052507f8b73c3c69bb8fe3d512ecc4cf759cc79239f7b179b0ffacaa9a75d522b39400f60c05260e0526001600160601b0319606091821b81166101005291901b166101205250620001869050630163f50083111561019462000ac3565b6200019a6276a70082111561019562000ac3565b4291909101610140819052016101605260601b6001600160601b031916610180528551620001ce906002111560c862000ac3565b620001e8620001dc62000ad8565b8751111560c962000ac3565b620001f38462000add565b60006200020e8b8b898962000b7160201b6200147d1760201c565b9050806101a081815250508a6001600160a01b031663d2946c2b6040518163ffffffff1660e01b815260040160206040518083038186803b1580156200025357600080fd5b505afa15801562000268573d6000803e3d6000fd5b505050506040513d601f19601f820116820180604052508101906200028e919062001579565b6001600160a01b03166101c0816001600160a01b031660601b81525050505050505050505050505050505050505050505050816001600160a01b03166101e0816001600160a01b031660601b81525050600062000303826040015160088060000101600862000ba060201b6200149d1760201c565b6200032483602001516008600001600862000ba060201b6200149d1760201c565b6200034284600001516000600862000ba060201b6200149d1760201c565b1717610200819052905062000358838262000bb5565b506200036d915050600883111560c962000ac3565b6200038582825162000e3b60201b620014b01760201c565b620003908162000e4a565b151560f81b6103205280518190600090620003a757fe5b60200260200101516001600160a01b0316610220816001600160a01b031660601b8152505080600181518110620003da57fe5b60200260200101516001600160a01b0316610240816001600160a01b031660601b81525050600282116200041057600062000427565b806002815181106200041e57fe5b60200260200101515b60601b6001600160601b03191661026052600382116200044957600062000460565b806003815181106200045757fe5b60200260200101515b60601b6001600160601b03191661028052600482116200048257600062000499565b806004815181106200049057fe5b60200260200101515b60601b6001600160601b0319166102a05260058211620004bb576000620004d2565b80600581518110620004c957fe5b60200260200101515b60601b6001600160601b0319166102c05260068211620004f45760006200050b565b806006815181106200050257fe5b60200260200101515b60601b6001600160601b0319166102e052600782116200052d57600062000544565b806007815181106200053b57fe5b60200260200101515b6001600160a01b0316610300816001600160a01b031660601b81525050505060008660400151519050620005898188606001515162000e3b60201b620014b01760201c565b6103408190526000805b828160ff1610156200060357600089606001518260ff1681518110620005b557fe5b60200260200101519050620005dd662386f26fc1000082101561012e62000ac360201b60201c565b620005f7818462000ea660201b620014c11790919060201c565b92505060010162000593565b506200061c670de0b6b3a7640000821461013462000ac3565b87604001516000815181106200062e57fe5b60200260200101516001600160a01b0316610360816001600160a01b031660601b8152505087604001516001815181106200066557fe5b60200260200101516001600160a01b0316610380816001600160a01b031660601b81525050600282116200069b576000620006b6565b8760400151600281518110620006ad57fe5b60200260200101515b60601b6001600160601b0319166103a05260038211620006d8576000620006f3565b8760400151600381518110620006ea57fe5b60200260200101515b60601b6001600160601b0319166103c052600482116200071557600062000730565b87604001516004815181106200072757fe5b60200260200101515b60601b6001600160601b0319166103e05260058211620007525760006200076d565b87604001516005815181106200076457fe5b60200260200101515b60601b6001600160601b03191661040052600682116200078f576000620007aa565b8760400151600681518110620007a157fe5b60200260200101515b60601b6001600160601b0319166104205260078211620007cc576000620007e7565b8760400151600781518110620007de57fe5b60200260200101515b6001600160a01b0316610440816001600160a01b031660601b815250506200082e88604001516000815181106200081a57fe5b602002602001015162000ec360201b60201c565b61046052604088015180516200084b919060019081106200081a57fe5b61048052600282116200086057600062000876565b6200087688604001516002815181106200081a57fe5b6104a052600382116200088b576000620008a1565b620008a188604001516003815181106200081a57fe5b6104c05260048211620008b6576000620008cc565b620008cc88604001516004815181106200081a57fe5b6104e05260058211620008e1576000620008f7565b620008f788604001516005815181106200081a57fe5b61050052600682116200090c57600062000922565b6200092288604001516006815181106200081a57fe5b6105205260078211620009375760006200094d565b6200094d88604001516007815181106200081a57fe5b61054052606088015180516000906200096257fe5b6020026020010151610560818152505087606001516001815181106200098457fe5b6020026020010151610580818152505060028211620009a5576000620009c0565b8760600151600281518110620009b757fe5b60200260200101515b6105a05260038211620009d5576000620009f0565b8760600151600381518110620009e757fe5b60200260200101515b6105c0526004821162000a0557600062000a20565b876060015160048151811062000a1757fe5b60200260200101515b6105e0526005821162000a3557600062000a50565b876060015160058151811062000a4757fe5b60200260200101515b610600526006821162000a6557600062000a80565b876060015160068151811062000a7757fe5b60200260200101515b610620526007821162000a9557600062000ab0565b876060015160078151811062000aa757fe5b60200260200101515b6106405250620018599650505050505050565b8162000ad45762000ad48162000f92565b5050565b600890565b62000af662000aeb62000fa7565b82101560cb62000ac3565b62000b0f62000b0462000fb0565b82111560ca62000ac3565b62000b318160c0603f60095462000fbc60201b620014d317909392919060201c565b6009556040517fa9ba3ffe0b6c366b81232caab38605a0699ad5398d6cce76f91ee809e322dafc9062000b6690839062001744565b60405180910390a150565b600062000b898362000fe160201b620014f61760201c565b62000b978585858562000fed565b95945050505050565b600062000baf848484620010e7565b50501b90565b6000826001600160a01b0316631a7c326362000be460006008866200114760201b62001500179092919060201c565b6040518263ffffffff1660e01b815260040162000c02919062001744565b60206040518083038186803b15801562000c1b57600080fd5b505afa15801562000c30573d6000803e3d6000fd5b505050506040513d601f19601f8201168201806040525081019062000c56919062001560565b905060006001600160a01b038416631a7c326362000c838560088062001147602090811b6200150017901c565b6040518263ffffffff1660e01b815260040162000ca1919062001744565b60206040518083038186803b15801562000cba57600080fd5b505afa15801562000ccf573d6000803e3d6000fd5b505050506040513d601f19601f8201168201806040525081019062000cf5919062001560565b905060006001600160a01b038516631a7c326362000d23866010600862001147602090811b6200150017901c565b6040518263ffffffff1660e01b815260040162000d41919062001744565b60206040518083038186803b15801562000d5a57600080fd5b505afa15801562000d6f573d6000803e3d6000fd5b505050506040513d601f19601f8201168201806040525081019062000d95919062001560565b9050600062000db88260408060000101604062000ba060201b6200149d1760201c565b62000dd5846040600001604062000ba060201b6200149d1760201c565b62000def866000604062000ba060201b6200149d1760201c565b1717905080600a819055507fc3f0acc358200d8e08ac6ce20bc2f9f27893a344f813bf682b7859b3e521502e8160405162000e2b919062001744565b60405180910390a1505050505050565b62000ad4828214606762000ac3565b6000805b825181101562000e9b5760006001600160a01b031683828151811062000e7057fe5b60200260200101516001600160a01b03161462000e9257600091505062000ea1565b60010162000e4e565b50600190505b919050565b600082820162000eba848210158362000ac3565b90505b92915050565b60006001600160a01b03821630141562000ee75750670de0b6b3a764000062000ea1565b6000826001600160a01b031663313ce5676040518163ffffffff1660e01b815260040160206040518083038186803b15801562000f2357600080fd5b505afa15801562000f38573d6000803e3d6000fd5b505050506040513d601f19601f8201168201806040525081019062000f5e919062001721565b60ff169050600062000f7d6012836200115660201b6200150f1760201c565b600a0a670de0b6b3a764000002949350505050565b62000fa4816210905360ea1b6200116e565b50565b64e8d4a5100090565b67016345785d8a000090565b600062000fcb848484620010e7565b506001901b60001901811b1992909216911b1790565b8062000ad481620011cf565b600080856001600160a01b03166309b2760f866040518263ffffffff1660e01b81526004016200101e9190620017db565b602060405180830381600087803b1580156200103957600080fd5b505af11580156200104e573d6000803e3d6000fd5b505050506040513d601f19601f8201168201806040525081019062001074919062001560565b604051633354e3e960e11b81529091506001600160a01b038716906366a9c7d290620010a9908490889088906004016200174d565b600060405180830381600087803b158015620010c457600080fd5b505af1158015620010d9573d6000803e3d6000fd5b509298975050505050505050565b620010f86101008310606462000ac3565b62001131600182101580156200112957506200112560ff84610100036200125660201b620015251760201c565b8211155b606462000ac3565b6200114283821c156101b462000ac3565b505050565b6001901b6000190191901c1690565b60006200116883831115600162000ac3565b50900390565b62461bcd60e51b600090815260206004526007602452600a808404818106603090810160081b958390069590950190829004918206850160101b01602363ffffff0060e086901c160160181b0190930160c81b60445260e882901c90606490fd5b600281511015620011e05762000fa4565b600081600081518110620011f057fe5b602002602001015190506000600190505b8251811015620011425760008382815181106200121a57fe5b602002602001015190506200124b816001600160a01b0316846001600160a01b031610606562000ac360201b60201c565b915060010162001201565b80820390821102900390565b828054600181600116156101000203166002900490600052602060002090601f016020900481019282601f10620012a557805160ff1916838001178555620012d5565b82800160010185558215620012d5579182015b82811115620012d5578251825591602001919060010190620012b8565b50620012e3929150620012e7565b5090565b5b80821115620012e35760008155600101620012e8565b805162000ebd8162001843565b600082601f8301126200131c578081fd5b8151620013336200132d8262001817565b620017f0565b8181529150602080830190848101818402860182018710156200135557600080fd5b60005b84811015620013815781516200136e8162001843565b8452928201929082019060010162001358565b505050505092915050565b600082601f8301126200139d578081fd5b8151620013ae6200132d8262001817565b818152915060208083019084810181840286018201871015620013d057600080fd5b60005b8481101562001381578151620013e98162001843565b84529282019290820190600101620013d3565b600082601f8301126200140d578081fd5b81516200141e6200132d8262001817565b8181529150602080830190848101818402860182018710156200144057600080fd5b60005b8481101562001381578151620014598162001843565b8452928201929082019060010162001443565b600082601f8301126200147d578081fd5b81516200148e6200132d8262001817565b818152915060208083019084810181840286018201871015620014b057600080fd5b60005b848110156200138157815184529282019290820190600101620014b3565b600082601f830112620014e2578081fd5b81516001600160401b03811115620014f8578182fd5b60206200150e601f8301601f19168201620017f0565b925081835284818386010111156200152557600080fd5b60005b828110156200154557848101820151848201830152810162001528565b82811115620015575760008284860101525b50505092915050565b60006020828403121562001572578081fd5b5051919050565b6000602082840312156200158b578081fd5b815162000eba8162001843565b60008060008060008060c08789031215620015b1578182fd5b86516001600160401b0380821115620015c8578384fd5b9088019060e0828b031215620015dc578384fd5b620015e860e0620017f0565b825182811115620015f7578586fd5b620016058c828601620014d1565b8252506020830151828111156200161a578586fd5b620016288c828601620014d1565b60208301525060408301518281111562001640578586fd5b6200164e8c8286016200138c565b60408301525060608301518281111562001666578586fd5b620016748c8286016200146c565b6060830152506080830151828111156200168c578586fd5b6200169a8c828601620013fc565b60808301525060a083015182811115620016b2578586fd5b620016c08c8286016200130b565b60a08301525060c083015160c0820152809850505050620016e58860208901620012fe565b9450620016f68860408901620012fe565b93506060870151925060808701519150620017158860a08901620012fe565b90509295509295509295565b60006020828403121562001733578081fd5b815160ff8116811462000eba578182fd5b90815260200190565b60006060820185835260206060818501528186518084526080860191508288019350845b81811015620017995762001786855162001837565b8352938301939183019160010162001771565b505084810360408601528551808252908201925081860190845b81811015620010d957620017c8835162001837565b85529383019391830191600101620017b3565b6020810160038310620017ea57fe5b91905290565b6040518181016001600160401b03811182821017156200180f57600080fd5b604052919050565b60006001600160401b038211156200182d578081fd5b5060209081020190565b6001600160a01b031690565b6001600160a01b038116811462000fa457600080fd5b60805160a05160c05160e0516101005160601c6101205160601c61014051610160516101805160601c6101a0516101c05160601c6101e05160601c610200516102205160601c6102405160601c6102605160601c6102805160601c6102a05160601c6102c05160601c6102e05160601c6103005160601c6103205160f81c610340516103605160601c6103805160601c6103a05160601c6103c05160601c6103e05160601c6104005160601c6104205160601c6104405160601c61046051610480516104a0516104c0516104e05161050051610520516105405161056051610580516105a0516105c0516105e0516106005161062051610640516160ce62001afc60003980612385528061372b52508061234252806136ca5250806122ff52806136695250806122bc528061360852508061227952806135a752508061223652806135465250806121f352806134e55250806121b95280613484525080612d5b525080612d37525080612d13525080612cef525080612ccb525080612ca7525080612c83525080612c5f52508061267f52806136f052508061263d528061368f5250806125fb528061362e5250806125b952806135cd525080612577528061356c525080612535528061350b5250806124f352806134aa5250806124aa5280613449525080611b125250806139d05250806109f85280613c315250806109a15280613be552508061094a5280613b995250806108f35280613b4d52508061089c5280613b015250806108375280613aa05250806107e05280613a4f5250806107925280613a115250806106d85280610ba95250806106b752508061125c525080610af852508061159b525080611957525080611933525080610f13525080610eef525080610e3d52508061299b5250806129dd5250806129bc52506160ce6000f3fe608060405234801561001057600080fd5b506004361061030a5760003560e01c80638456cb591161019c578063a9059cbb116100ee578063d2946c2b11610097578063dd62ed3e11610071578063dd62ed3e146105c9578063ed24911d146105dc578063f89f27ed146105e45761030a565b8063d2946c2b1461059b578063d505accf146105a3578063d5c096c4146105b65761030a565b8063b35056b8116100c8578063b35056b814610583578063b7b814fc1461058b578063c0ff1a15146105935761030a565b8063a9059cbb14610560578063aaabadc514610573578063b10962781461057b5761030a565b80638d928af8116101505780639d2c110c1161012a5780639d2c110c14610527578063a3456c561461053a578063a457c2d71461054d5761030a565b80638d928af81461050457806390193b7c1461050c57806395d89b411461051f5761030a565b8063876f303b11610181578063876f303b146104d457806387ec6817146104dc578063893d20e8146104ef5761030a565b80638456cb59146104b9578063851c1bb3146104c15761030a565b806338e9922e1161026057806355c676281161020957806370a08231116101e357806370a082311461047257806374f3b009146104855780637ecebe00146104a65761030a565b806355c67628146104365780636028bfd41461043e578063704640161461045f5761030a565b80633f4ba83a1161023a5780633f4ba83a146104135780634df77ce01461041b57806354a844ba1461042e5761030a565b806338e9922e146103e557806338fff2d0146103f857806339509351146104005761030a565b80631dd746ea116102c257806323ef89ed1161029c57806323ef89ed146103c0578063313ce567146103c85780633644e515146103dd5761030a565b80631dd746ea14610383578063238a2d591461039857806323b872dd146103ad5761030a565b80630da0669c116102f35780630da0669c1461034d57806318160ddd146103575780631c0de0511461036c5761030a565b806306fdde031461030f578063095ea7b31461032d575b600080fd5b6103176105ec565b6040516103249190615f9b565b60405180910390f35b61034061033b36600461575f565b610683565b6040516103249190615e2a565b61035561069a565b005b61035f6106fe565b6040516103249190615e4d565b610374610704565b60405161032493929190615e35565b61038b61072d565b6040516103249190615df2565b6103a061073c565b6040516103249190615da5565b6103406103bb3660046156af565b610a4b565b61035f610ac1565b6103d0610ac7565b6040516103249190615f8d565b61035f610ad0565b6103556103f3366004615c64565b610ada565b61035f610af6565b61034061040e36600461575f565b610b1a565b610355610b55565b61035f610429366004615c64565b610b67565b610355610bd9565b61035f610c2d565b61045161044c36600461588e565b610c40565b604051610324929190615fce565b61035f61046d366004615c64565b610c77565b61035f61048036600461565b565b610cd9565b61049861049336600461588e565b610cf4565b604051610324929190615e05565b61035f6104b436600461565b565b610e1c565b610355610e27565b61035f6104cf36600461598b565b610e39565b61035f610e8b565b6104516104ea36600461588e565b610ec7565b6104f7610eed565b6040516103249190615d91565b6104f7610f11565b61035f61051a36600461565b565b610f35565b610317610f50565b61035f610535366004615b68565b610fb1565b61035f610548366004615677565b6110aa565b61034061055b36600461575f565b6110d5565b61034061056e36600461575f565b611113565b6104f7611120565b61035f61112a565b610340611142565b610355611153565b61035f61119d565b6104f761125a565b6103556105b13660046156ef565b61127e565b6104986105c436600461588e565b611309565b61035f6105d7366004615677565b61142c565b61035f611469565b61038b611473565b60038054604080516020601f60026000196101006001881615020190951694909404938401819004810282018101909252828152606093909290918301828280156106785780601f1061064d57610100808354040283529160200191610678565b820191906000526020600020905b81548152906001019060200180831161065b57829003601f168201915b505050505090505b90565b6000610690338484611531565b5060015b92915050565b6106aa6106a5611599565b6115bd565b6106b26116a6565b6106fc7f00000000000000000000000000000000000000000000000000000000000000007f0000000000000000000000000000000000000000000000000000000000000000611700565b565b60025490565b6000806000610711611914565b15925061071c611931565b9150610726611955565b9050909192565b6060610737611979565b905090565b60606000610748611b10565b905060608167ffffffffffffffff8111801561076357600080fd5b5060405190808252806020026020018201604052801561078d578160200160208202803683370190505b5090507f0000000000000000000000000000000000000000000000000000000000000000816000815181106107be57fe5b60200260200101906001600160a01b031690816001600160a01b0316815250507f00000000000000000000000000000000000000000000000000000000000000008160018151811061080c57fe5b60200260200101906001600160a01b031690816001600160a01b0316815250506002821115610888577f00000000000000000000000000000000000000000000000000000000000000008160028151811061086357fe5b60200260200101906001600160a01b031690816001600160a01b031681525050610891565b91506106809050565b6003821115610888577f0000000000000000000000000000000000000000000000000000000000000000816003815181106108c857fe5b60200260200101906001600160a01b031690816001600160a01b0316815250506004821115610888577f00000000000000000000000000000000000000000000000000000000000000008160048151811061091f57fe5b60200260200101906001600160a01b031690816001600160a01b0316815250506005821115610888577f00000000000000000000000000000000000000000000000000000000000000008160058151811061097657fe5b60200260200101906001600160a01b031690816001600160a01b0316815250506006821115610888577f0000000000000000000000000000000000000000000000000000000000000000816006815181106109cd57fe5b60200260200101906001600160a01b031690816001600160a01b0316815250506007821115610888577f000000000000000000000000000000000000000000000000000000000000000081600781518110610a2457fe5b60200260200101906001600160a01b031690816001600160a01b0316815250505b91505090565b600080610a58853361142c565b9050610a7c336001600160a01b0387161480610a745750838210155b61019e611b34565b610a87858585611b42565b336001600160a01b03861614801590610aa257506000198114155b15610ab457610ab48533858403611531565b60019150505b9392505050565b600b5490565b60055460ff1690565b6000610737611469565b610ae2611c22565b610aea611c68565b610af381611c7b565b50565b7f000000000000000000000000000000000000000000000000000000000000000090565b3360008181526001602090815260408083206001600160a01b03871684529091528120549091610690918590610b5090866114c1565b611531565b610b5d611c22565b6106fc6000611cf4565b60008082610b7757506000610ba4565b6002831415610b8857506008610ba4565b6003831415610b9957506010610ba4565b610ba46101bb611d85565b610bd07f0000000000000000000000000000000000000000000000000000000000000000826008611500565b9150505b919050565b610be1611c22565b610be9611daf565b610bf36001611dc3565b7feff3d4d215b42bf0960be9c6d5e05c22cba4df6627a3a523e2acee733b5854c86001604051610c239190615e2a565b60405180910390a1565b6009546000906107379060c0603f611500565b60006060610c568651610c51611b10565b6114b0565b610c6b89898989898989611e1a611e7c611eeb565b97509795505050505050565b6000610c81611142565b15610c8e57506000610bd4565b600082610c9d57506000610cca565b6002831415610cae57506040610cca565b6003831415610cbf57506080610cca565b610cca6101bb611d85565b600a54610bd090826040611500565b6001600160a01b031660009081526020819052604090205490565b60608088610d1e610d03610f11565b6001600160a01b0316336001600160a01b03161460cd611b34565b610d33610d29610af6565b82146101f4611b34565b60606000610d4086612082565b15610d6857610d4d6120b1565b610d5f89610d596106fe565b886120c4565b92509050610dba565b610d706120e8565b6060610d7a611979565b9050610d868a826120f0565b610daa8d8d8d8d8d610d96611142565b610da0578d610da3565b60005b878e611e1a565b93509150610db88382611e7c565b505b610dc48b82612159565b81895167ffffffffffffffff81118015610ddd57600080fd5b50604051908082528060200260200182016040528015610e07578160200160208202803683370190505b509450945050505b5097509795505050505050565b600061069482610f35565b610e2f611c22565b6106fc6001611cf4565b60007f000000000000000000000000000000000000000000000000000000000000000082604051602001610e6e929190615cff565b604051602081830303815290604052805190602001209050919050565b600080610e966106fe565b90506000610eb3610ea561119d565b610ead612163565b846123b1565b509050610ec082826114c1565b9250505090565b60006060610ed88651610c51611b10565b610c6b898989898989896123f461243d611eeb565b7f000000000000000000000000000000000000000000000000000000000000000090565b7f000000000000000000000000000000000000000000000000000000000000000090565b6001600160a01b031660009081526006602052604090205490565b60048054604080516020601f60026000196101006001881615020190951694909404938401819004810282018101909252828152606093909290918301828280156106785780601f1061064d57610100808354040283529160200191610678565b60008360800151610fc3610d03610f11565b610fce610d29610af6565b610fd66120e8565b6000610fe586602001516124a6565b90506000610ff687604001516124a6565b905061100286836126ca565b955061100e85826126ca565b945060008751600181111561101f57fe5b141561106b5761103287606001516126d6565b6060880181905261104390836126ca565b606088015260006110558888886126f7565b9050611061818361272a565b94505050506110a2565b6110798760600151826126ca565b6060880152600061108b888888612736565b90506110978184612761565b90506110618161276d565b509392505050565b6001600160a01b03918216600090815260076020908152604080832093909416825291909152205490565b6000806110e2338561142c565b90508083106110fc576110f733856000611531565b611109565b6111093385858403611531565b5060019392505050565b6000610690338484611b42565b6000610737612789565b6000610737600060c061113b612803565b9190611500565b6009546000906107379060ff612809565b61115b611c22565b6111636120b1565b61116d6000611dc3565b7feff3d4d215b42bf0960be9c6d5e05c22cba4df6627a3a523e2acee733b5854c86000604051610c239190615e2a565b600060606111a9610f11565b6001600160a01b031663f94d46686111bf610af6565b6040518263ffffffff1660e01b81526004016111db9190615e4d565b60006040518083038186803b1580156111f357600080fd5b505afa158015611207573d6000803e3d6000fd5b505050506040513d6000823e601f3d908101601f1916820160405261122f919081019061578a565b509150506112448161123f611979565b6120f0565b606061124e612163565b9050610ec08183612810565b7f000000000000000000000000000000000000000000000000000000000000000090565b60007f6e71edae12b1b97f4d1f60370fef10105fa2faae0126114a169c64845d6126c98888886112ad8c610f35565b896040516020016112c396959493929190615e75565b6040516020818303038152906040528051906020012090506112f488826112eb878787612882565b886101f86128c1565b6112ff888888611531565b5050505050505050565b60608088611318610d03610f11565b611323610d29610af6565b61132b6120e8565b6060611335611979565b905061133f6106fe565b6113ec57600060606113548d8d8d868b612918565b9150915061136d61136361295b565b83101560cc611b34565b61137f600061137a61295b565b612962565b6113928b61138b61295b565b8403612962565b61139c818461243d565b808a5167ffffffffffffffff811180156113b557600080fd5b506040519080825280602002602001820160405280156113df578160200160208202803683370190505b5095509550505050610e0f565b6113f688826120f0565b6000606061141e8d8d8d8d8d61140a611142565b611414578d611417565b60005b898e6123f4565b915091506113928b83612962565b6000611436610f11565b6001600160a01b0316826001600160a01b031614156114585750600019610694565b611462838361296c565b9050610694565b6000610737612997565b6060610737612163565b6000611488836114f6565b61149485858585612a34565b95945050505050565b60006114aa848484612b3d565b50501b90565b6114bd8183146067611b34565b5050565b6000828201610aba8482101583611b34565b60006114e0848484612b3d565b506001901b60001901811b1992909216911b1790565b806114bd81612b84565b6001901b6000190191901c1690565b600061151f838311156001611b34565b50900390565b80820390821102900390565b6001600160a01b0380841660008181526001602090815260408083209487168084529490915290819020849055517f8c5be1e5ebec7d5bd14f71427d1e84f3dd0314c0f7b2291e5b200ac8c7c3b9259061158c908590615e4d565b60405180910390a3505050565b7f000000000000000000000000000000000000000000000000000000000000000090565b6060816001600160a01b0316612710630e8e3e8460e01b60006040516024016115e69190615f8d565b60408051601f198184030181529181526020820180517bffffffffffffffffffffffffffffffffffffffffffffffffffffffff167fffffffff000000000000000000000000000000000000000000000000000000009094169390931790925290516116519190615d3f565b6000604051808303818686fa925050503d806000811461168d576040519150601f19603f3d011682016040523d82523d6000602084013e611692565b606091505b509150506114bd8151600014610190611b34565b6116ae611c68565b60006116b861119d565b90506000806116d6836116c9612163565b6116d16106fe565b6123b1565b915091506116e382612bfd565b6116ec83612c14565b80156116fb576116fb81612c1d565b505050565b60006001600160a01b038316631a7c326361171d84846008611500565b6040518263ffffffff1660e01b81526004016117399190615e4d565b60206040518083038186803b15801561175157600080fd5b505afa158015611765573d6000803e3d6000fd5b505050506040513d601f19601f820116820180604052508101906117899190615876565b905060006001600160a01b038416631a7c32636117a885600880611500565b6040518263ffffffff1660e01b81526004016117c49190615e4d565b60206040518083038186803b1580156117dc57600080fd5b505afa1580156117f0573d6000803e3d6000fd5b505050506040513d601f19601f820116820180604052508101906118149190615876565b905060006001600160a01b038516631a7c32636118348660106008611500565b6040518263ffffffff1660e01b81526004016118509190615e4d565b60206040518083038186803b15801561186857600080fd5b505afa15801561187c573d6000803e3d6000fd5b505050506040513d601f19601f820116820180604052508101906118a09190615876565b905060006118b1826080604061149d565b6118bd8460408061149d565b6118ca866000604061149d565b1717905080600a819055507fc3f0acc358200d8e08ac6ce20bc2f9f27893a344f813bf682b7859b3e521502e816040516119049190615e4d565b60405180910390a1505050505050565b600061191e611955565b42118061073757505060085460ff161590565b7f000000000000000000000000000000000000000000000000000000000000000090565b7f000000000000000000000000000000000000000000000000000000000000000090565b60606000611985611b10565b905060608167ffffffffffffffff811180156119a057600080fd5b506040519080825280602002602001820160405280156119ca578160200160208202803683370190505b5090506119d5612c5d565b816000815181106119e257fe5b6020026020010181815250506119f6612c81565b81600181518110611a0357fe5b602002602001018181525050600282111561088857611a20612ca5565b81600281518110611a2d57fe5b602002602001018181525050600382111561088857611a4a612cc9565b81600381518110611a5757fe5b602002602001018181525050600482111561088857611a74612ced565b81600481518110611a8157fe5b602002602001018181525050600582111561088857611a9e612d11565b81600581518110611aab57fe5b602002602001018181525050600682111561088857611ac8612d35565b81600681518110611ad557fe5b602002602001018181525050600782111561088857611af2612d59565b81600781518110611aff57fe5b602002602001018181525050610a45565b7f000000000000000000000000000000000000000000000000000000000000000090565b816114bd576114bd81611d85565b611b596001600160a01b0384161515610198611b34565b611b706001600160a01b0383161515610199611b34565b611b7b8383836116fb565b6001600160a01b038316600090815260208190526040902054611ba190826101a0612d7d565b6001600160a01b038085166000908152602081905260408082209390935590841681522054611bd090826114c1565b6001600160a01b0380841660008181526020819052604090819020939093559151908516907fddf252ad1be2c89b69c2b068fc378daa952ba7f163c4a11628f55a4df523b3ef9061158c908590615e4d565b6000611c516000357fffffffff0000000000000000000000000000000000000000000000000000000016610e39565b9050610af3611c608233612d93565b610191611b34565b6106fc611c73611914565b610192611b34565b611c90611c86612e7c565b82101560cb611b34565b611ca5611c9b612e85565b82111560ca611b34565b600954611cb6908260c0603f6114d3565b6009556040517fa9ba3ffe0b6c366b81232caab38605a0699ad5398d6cce76f91ee809e322dafc90611ce9908390615e4d565b60405180910390a150565b8015611d1457611d0f611d05611931565b4210610193611b34565b611d29565b611d29611d1f611955565b42106101a9611b34565b600880547fffffffffffffffffffffffffffffffffffffffffffffffffffffffffffffff00168215151790556040517f9e3a5e37224532dea67b89face185703738a228a6e8a23dee546960180d3be6490611ce9908390615e2a565b610af3817f42414c0000000000000000000000000000000000000000000000000000000000612e91565b6106fc611dba611142565b156101b5611b34565b600954611dd2908260ff612f0c565b6009556040517feff3d4d215b42bf0960be9c6d5e05c22cba4df6627a3a523e2acee733b5854c890611e05908390615e2a565b60405180910390a180610af357610af3612f1b565b6000606080611e27612163565b9050600080611e368a84612f63565b9150915060006060611e4c8e8d878c888d612fc3565b9092509050611e68838d838888611e63818961150f565b613056565b909e909d509b505050505050505050505050565b81518151611e8b9082906114b0565b60005b81811015611ee557611ec6848281518110611ea557fe5b6020026020010151848381518110611eb957fe5b602002602001015161307a565b848281518110611ed257fe5b6020908102919091010152600101611e8e565b50505050565b333014611fda576000306001600160a01b0316600036604051611f0f929190615d2f565b6000604051808303816000865af19150503d8060008114611f4c576040519150601f19603f3d011682016040523d82523d6000602084013e611f51565b606091505b505090508060008114611f6057fe5b60046000803e6000517fffffffff00000000000000000000000000000000000000000000000000000000167f43adbafb000000000000000000000000000000000000000000000000000000008114611fbc573d6000803e3d6000fd5b506020600460003e604060205260243d03602460403e601c3d016000f35b611fe26120e8565b6060611fec611979565b9050611ff887826120f0565b600060606120108c8c8c8c8c8c898d8d63ffffffff16565b9150915061202281848663ffffffff16565b8051601f1982018390526343adbafb7fffffffffffffffffffffffffffffffffffffffffffffffffffffffffffffffc08301526020027fffffffffffffffffffffffffffffffffffffffffffffffffffffffffffffffdc82016044820181fd5b6000808251118015610694575060ff8016828060200190518101906120a79190615c7c565b60ff161492915050565b6106fc6120bc611142565b6101b6611b34565b600060606120d1836130cd565b91506120de8585846130e3565b9050935093915050565b6106fc611c68565b815181516120ff9082906114b0565b60005b81811015611ee55761213a84828151811061211957fe5b602002602001015184838151811061212d57fe5b6020026020010151613192565b84828151811061214657fe5b6020908102919091010152600101612102565b6114bd82826131c5565b6060600061216f611b10565b905060608167ffffffffffffffff8111801561218a57600080fd5b506040519080825280602002602001820160405280156121b4578160200160208202803683370190505b5090507f0000000000000000000000000000000000000000000000000000000000000000816000815181106121e557fe5b6020026020010181815250507f00000000000000000000000000000000000000000000000000000000000000008160018151811061221f57fe5b6020026020010181815250506002821115610888577f00000000000000000000000000000000000000000000000000000000000000008160028151811061226257fe5b6020026020010181815250506003821115610888577f0000000000000000000000000000000000000000000000000000000000000000816003815181106122a557fe5b6020026020010181815250506004821115610888577f0000000000000000000000000000000000000000000000000000000000000000816004815181106122e857fe5b6020026020010181815250506005821115610888577f00000000000000000000000000000000000000000000000000000000000000008160058151811061232b57fe5b6020026020010181815250506006821115610888577f00000000000000000000000000000000000000000000000000000000000000008160068151811061236e57fe5b6020026020010181815250506007821115610888577f000000000000000000000000000000000000000000000000000000000000000081600781518110611aff57fe5b60008060006123c9866123c46000610c77565b613291565b90506000806123d7876132b7565b915091506123e786838501613327565b9890975095505050505050565b6000606080612401612163565b90506000806124108a84612f63565b91509150600060606124268e8d878c888d613344565b9092509050611e68838d838888611e6381896114c1565b8151815161244c9082906114b0565b60005b81811015611ee55761248784828151811061246657fe5b602002602001015184838151811061247a57fe5b60200260200101516133c0565b84828151811061249357fe5b602090810291909101015260010161244f565b60007f00000000000000000000000000000000000000000000000000000000000000006001600160a01b0316826001600160a01b031614156124f1576124ea612c5d565b9050610bd4565b7f00000000000000000000000000000000000000000000000000000000000000006001600160a01b0316826001600160a01b03161415612533576124ea612c81565b7f00000000000000000000000000000000000000000000000000000000000000006001600160a01b0316826001600160a01b03161415612575576124ea612ca5565b7f00000000000000000000000000000000000000000000000000000000000000006001600160a01b0316826001600160a01b031614156125b7576124ea612cc9565b7f00000000000000000000000000000000000000000000000000000000000000006001600160a01b0316826001600160a01b031614156125f9576124ea612ced565b7f00000000000000000000000000000000000000000000000000000000000000006001600160a01b0316826001600160a01b0316141561263b576124ea612d11565b7f00000000000000000000000000000000000000000000000000000000000000006001600160a01b0316826001600160a01b0316141561267d576124ea612d35565b7f00000000000000000000000000000000000000000000000000000000000000006001600160a01b0316826001600160a01b031614156126bf576124ea612d59565b610bd4610135611d85565b6000610aba8383613192565b6000806126eb6126e4610c2d565b849061340d565b9050610bd0838261150f565b60006127228361270a8660200151613445565b846127188860400151613445565b886060015161374f565b949350505050565b6000610aba838361307a565b6000612722836127498660200151613445565b846127578860400151613445565b88606001516137ca565b6000610aba83836133c0565b600061069461278261277d610c2d565b613840565b83906133c0565b6000612793610f11565b6001600160a01b031663aaabadc56040518163ffffffff1660e01b815260040160206040518083038186803b1580156127cb57600080fd5b505afa1580156127df573d6000803e3d6000fd5b505050506040513d601f19601f8201168201806040525081019061073791906159cb565b60095490565b1c60011690565b670de0b6b3a764000060005b83518110156128725761286861286185838151811061283757fe5b602002602001015185848151811061284b57fe5b602002602001015161385290919063ffffffff16565b8390613192565b915060010161281c565b5061069460008211610137611b34565b60408051604180825260808201909252606091829190602082018180368337019050509050836020820152826040820152846060820153949350505050565b60006128cc85613903565b90506128e26128dc87838761391f565b83611b34565b6128f1428410156101b8611b34565b5050506001600160a01b039092166000908152600660205260409020805460010190555050565b600060606129246139ce565b6129405761294061293b612936612163565b6139f2565b612c1d565b61294d8787878787613c55565b915091509550959350505050565b620f424090565b6114bd8282613ce5565b6001600160a01b03918216600090815260016020908152604080832093909416825291909152205490565b60007f00000000000000000000000000000000000000000000000000000000000000007f00000000000000000000000000000000000000000000000000000000000000007f0000000000000000000000000000000000000000000000000000000000000000612a04613d78565b30604051602001612a19959493929190615f2f565b60405160208183030381529060405280519060200120905090565b600080856001600160a01b03166309b2760f866040518263ffffffff1660e01b8152600401612a639190615f79565b602060405180830381600087803b158015612a7d57600080fd5b505af1158015612a91573d6000803e3d6000fd5b505050506040513d601f19601f82011682018060405250810190612ab59190615876565b6040517f66a9c7d20000000000000000000000000000000000000000000000000000000081529091506001600160a01b038716906366a9c7d290612b0190849088908890600401615ea9565b600060405180830381600087803b158015612b1b57600080fd5b505af1158015612b2f573d6000803e3d6000fd5b509298975050505050505050565b612b4c61010083106064611b34565b612b7560018210158015612b6e5750612b6a60ff8461010003611525565b8211155b6064611b34565b6116fb83821c156101b4611b34565b600281511015612b9357610af3565b600081600081518110612ba257fe5b602002602001015190506000600190505b82518110156116fb576000838281518110612bca57fe5b60200260200101519050612bf3816001600160a01b0316846001600160a01b0316106065611b34565b9150600101612bb3565b8015610af357610af3612c0e61125a565b82612962565b610af381613d7c565b7f836ff8964123d8b264c228d02eae300e3c2112664d4622b62c883b1128f66df5600b5482604051612c50929190615fe7565b60405180910390a1600b55565b7f000000000000000000000000000000000000000000000000000000000000000090565b7f000000000000000000000000000000000000000000000000000000000000000090565b7f000000000000000000000000000000000000000000000000000000000000000090565b7f000000000000000000000000000000000000000000000000000000000000000090565b7f000000000000000000000000000000000000000000000000000000000000000090565b7f000000000000000000000000000000000000000000000000000000000000000090565b7f000000000000000000000000000000000000000000000000000000000000000090565b7f000000000000000000000000000000000000000000000000000000000000000090565b6000612d8c8484111583611b34565b5050900390565b600073ba1ba1ba1ba1ba1ba1ba1ba1ba1ba1ba1ba1ba1b612db2610eed565b6001600160a01b031614158015612dcd5750612dcd83613d9c565b15612df557612dda610eed565b6001600160a01b0316336001600160a01b0316149050610694565b612dfd612789565b6001600160a01b0316639be2a8848484306040518463ffffffff1660e01b8152600401612e2c93929190615e56565b60206040518083038186803b158015612e4457600080fd5b505afa158015612e58573d6000803e3d6000fd5b505050506040513d601f19601f820116820180604052508101906114629190615856565b64e8d4a5100090565b67016345785d8a000090565b7f08c379a000000000000000000000000000000000000000000000000000000000600090815260206004526007602452600a808404818106603090810160081b958390069590950190829004918206850160101b01602363ffffff0060e086901c160160181b0190930160c81b60445260e882901c90606490fd5b6001811b1992909216911b1790565b612f2b612f2661119d565b612c14565b612f336139ce565b6106fc576000612f41610ac1565b90506000612f50612936612163565b9050818111156114bd576114bd81612c1d565b6000806000612f706106fe565b90506000612f7e8587612810565b9050600080612f8e8388866123b1565b90925090508015612fa257612fa281612c1d565b612fab82612bfd565b612fb584836114c1565b989297509195505050505050565b600060606000612fd284613da7565b90506000816002811115612fe257fe5b1415612ffe57612ff488888787613dbd565b925092505061304b565b600181600281111561300c57fe5b141561301d57612ff4888686613e8c565b600281600281111561302b57fe5b141561303e57612ff48888888888613eb8565b613049610150611d85565b505b965096945050505050565b6000613066878787878787613f17565b905061307181612bfd565b50505050505050565b60006130898215156004611b34565b670de0b6b3a764000083026130bb8415806130b45750670de0b6b3a76400008583816130b157fe5b04145b6005611b34565b8281816130c457fe5b04949350505050565b600081806020019051810190610aba9190615c98565b606060006130f1838561307a565b9050845167ffffffffffffffff8111801561310b57600080fd5b50604051908082528060200260200182016040528015613135578160200160208202803683370190505b50915060005b85518110156131895761316a8287838151811061315457fe5b602002602001015161319290919063ffffffff16565b83828151811061317657fe5b602090810291909101015260010161313b565b50509392505050565b60008282026131b68415806131af5750838583816131ac57fe5b04145b6003611b34565b670de0b6b3a7640000816130c4565b6131dc6001600160a01b038316151561019b611b34565b6131e8826000836116fb565b6001600160a01b03821660009081526020819052604090205461320e90826101b2612d7d565b6001600160a01b03831660009081526020819052604090205561324161323c826132366106fe565b90614010565b61401e565b60006001600160a01b0316826001600160a01b03167fddf252ad1be2c89b69c2b068fc378daa952ba7f163c4a11628f55a4df523b3ef836040516132859190615e4d565b60405180910390a35050565b6000610aba6132a86132a161112a565b859061307a565b670de0b6b3a764000084614023565b6000806132c26139ce565b156132d257506000905080613322565b600b5460006132e0856139f2565b90508181116132f757600080935093505050613322565b61331c613304828461307a565b670de0b6b3a76400006133176002610c77565b614023565b93509150505b915091565b6000610aba6133368484614061565b61333f84613840565b61407b565b6000606060006133538461409b565b9050600181600381111561336357fe5b141561337657612ff488888888886140b1565b600281600381111561338457fe5b141561339657612ff488888787614101565b60038160038111156133a457fe5b14156133b557612ff488868661415f565b613049610136611d85565b60006133cf8215156004611b34565b670de0b6b3a764000083026133f78415806130b45750670de0b6b3a76400008583816130b157fe5b6001836001830304018115150291505092915050565b60008282026134278415806131af5750838583816131ac57fe5b6001670de0b6b3a76400006001830304018115150291505092915050565b60007f00000000000000000000000000000000000000000000000000000000000000006001600160a01b0316826001600160a01b031614156134a857507f0000000000000000000000000000000000000000000000000000000000000000610bd4565b7f00000000000000000000000000000000000000000000000000000000000000006001600160a01b0316826001600160a01b0316141561350957507f0000000000000000000000000000000000000000000000000000000000000000610bd4565b7f00000000000000000000000000000000000000000000000000000000000000006001600160a01b0316826001600160a01b0316141561356a57507f0000000000000000000000000000000000000000000000000000000000000000610bd4565b7f00000000000000000000000000000000000000000000000000000000000000006001600160a01b0316826001600160a01b031614156135cb57507f0000000000000000000000000000000000000000000000000000000000000000610bd4565b7f00000000000000000000000000000000000000000000000000000000000000006001600160a01b0316826001600160a01b0316141561362c57507f0000000000000000000000000000000000000000000000000000000000000000610bd4565b7f00000000000000000000000000000000000000000000000000000000000000006001600160a01b0316826001600160a01b0316141561368d57507f0000000000000000000000000000000000000000000000000000000000000000610bd4565b7f00000000000000000000000000000000000000000000000000000000000000006001600160a01b0316826001600160a01b031614156136ee57507f0000000000000000000000000000000000000000000000000000000000000000610bd4565b7f00000000000000000000000000000000000000000000000000000000000000006001600160a01b0316826001600160a01b031614156126bf57507f0000000000000000000000000000000000000000000000000000000000000000610bd4565b600061377161376687670429d069189e0000613192565b831115610130611b34565b600061377d87846114c1565b9050600061378b88836133c0565b90506000613799888761307a565b905060006137a7838361417d565b90506137bc6137b582613840565b8990613192565b9a9950505050505050505050565b60006137ec6137e185670429d069189e0000613192565b831115610131611b34565b60006138026137fb868561150f565b86906133c0565b9050600061381085886133c0565b9050600061381e838361417d565b9050600061383482670de0b6b3a764000061150f565b90506137bc8a8261340d565b670de0b6b3a764000081810391100290565b6000670de0b6b3a764000082141561386b575081610694565b671bc16d674ec80000821415613885576114628384613192565b673782dace9d9000008214156138b55760006138a18485613192565b90506138ad8182613192565b915050610694565b60006138c18484614203565b905060006138db6138d48361271061340d565b60016114c1565b9050808210156138f057600092505050610694565b6138fa828261150f565b92505050610694565b600061390d612997565b82604051602001610e6e929190615d5b565b600061393182516041146101b9611b34565b60208281015160408085015160608601518251600080825295019283905292939092811a9160019061396a908990859088908890615f5b565b6020604051602081039080840390855afa15801561398c573d6000803e3d6000fd5b5050604051601f1901519150506001600160a01b038116158015906139c25750876001600160a01b0316816001600160a01b0316145b98975050505050505050565b7f000000000000000000000000000000000000000000000000000000000000000090565b805160009081613a78613a35858385613a0757fe5b60200260200101517f0000000000000000000000000000000000000000000000000000000000000000614319565b613a7386600181518110613a4557fe5b60200260200101517f0000000000000000000000000000000000000000000000000000000000000000614319565b613192565b90506002821115613ad257613acb613ac485600281518110613a9657fe5b60200260200101517f0000000000000000000000000000000000000000000000000000000000000000614319565b8290613192565b9050613adb565b9150610bd49050565b6003821115613ad257613b25613ac485600381518110613af757fe5b60200260200101517f0000000000000000000000000000000000000000000000000000000000000000614319565b90506004821115613ad257613b71613ac485600481518110613b4357fe5b60200260200101517f0000000000000000000000000000000000000000000000000000000000000000614319565b90506005821115613ad257613bbd613ac485600581518110613b8f57fe5b60200260200101517f0000000000000000000000000000000000000000000000000000000000000000614319565b90506006821115613ad257613c09613ac485600681518110613bdb57fe5b60200260200101517f0000000000000000000000000000000000000000000000000000000000000000614319565b90506007821115610bd057612722613ac485600781518110613c2757fe5b60200260200101517f0000000000000000000000000000000000000000000000000000000000000000614319565b600060606000613c648461409b565b9050613c7f6000826003811115613c7757fe5b1460ce611b34565b6060613c8a856143ba565b9050613c98815187516114b0565b613ca281876120f0565b6060613cac612163565b90506000613cba8284612810565b90506000613cc9828551614061565b9050613cd482612c14565b9b929a509198505050505050505050565b613cf1600083836116fb565b613d0661323c82613d006106fe565b906114c1565b6001600160a01b038216600090815260208190526040902054613d2990826114c1565b6001600160a01b0383166000818152602081905260408082209390935591519091907fddf252ad1be2c89b69c2b068fc378daa952ba7f163c4a11628f55a4df523b3ef90613285908590615e4d565b4690565b610af3613d9782600060c0613d8f612803565b9291906114d3565b6143d0565b6000610694826143e5565b60008180602001905181019061069491906159e7565b60006060600080613dcd856143f0565b91509150613ddf885182106064611b34565b6000613e1b898381518110613df057fe5b6020026020010151898481518110613e0457fe5b6020026020010151858a613e16610c2d565b614412565b90506060895167ffffffffffffffff81118015613e3757600080fd5b50604051908082528060200260200182016040528015613e61578160200160208202803683370190505b50905081818481518110613e7157fe5b60209081029190910101529299929850919650505050505050565b600060606000613e9b846144c8565b90506060613eaa8787846130e3565b919791965090945050505050565b60006060806000613ec8856144de565b91509150613ed882518a516114b0565b613ee282886120f0565b6000613ef88a8a858a613ef3610c2d565b6144f6565b9050613f088282111560cf611b34565b99919850909650505050505050565b600082821015815b8751811015613fb15781613f6257613f5d888281518110613f3c57fe5b6020026020010151888381518110613f5057fe5b6020026020010151614010565b613f92565b613f92888281518110613f7157fe5b6020026020010151888381518110613f8557fe5b60200260200101516114c1565b888281518110613f9e57fe5b6020908102919091010152600101613f1f565b506000613fbe8689612810565b90506000613fcc6000610c77565b9050613fd782612c14565b80613fe85760009350505050614006565b6000613fff613ff7848d61307a565b888885614634565b9450505050505b9695505050505050565b6000610aba83836001612d7d565b600255565b60008383101580614032575081155b1561403f57506000610aba565b600061404b848661307a565b670de0b6b3a76400000390506114948184613192565b6000828202610aba8415806131af5750838583816131ac57fe5b600061408a8215156004611b34565b81838161409357fe5b049392505050565b6000818060200190518101906106949190615aa8565b600060608060006140c185614657565b915091506140d1895183516114b0565b6140db82886120f0565b60006140f18a8a858a6140ec610c2d565b61466f565b9050613f088282101560d0611b34565b60006060600080614111856147ba565b91509150614123885182106064611b34565b6000613e1b89838151811061413457fe5b602002602001015189848151811061414857fe5b6020026020010151858a61415a610c2d565b6147d1565b60006060600061416e84614867565b90506060613eaa87878461487d565b6000670de0b6b3a7640000821415614196575081610694565b671bc16d674ec800008214156141b057611462838461340d565b673782dace9d9000008214156141d85760006141cc848561340d565b90506138ad818261340d565b60006141e48484614203565b905060006141f76138d48361271061340d565b90506138fa82826114c1565b6000816142195750670de0b6b3a7640000610694565b8261422657506000610694565b61423660ff84901c156006611b34565b8261425c770bce5086492111aea88f4bb1ca6bcf584181ea8059f7653284106007611b34565b826000670c7d713b49da00008313801561427d5750670f43fc2c04ee000083125b156142b457600061428d8461490d565b9050670de0b6b3a764000080820784020583670de0b6b3a7640000830502019150506142c2565b816142be84614a44565b0290505b670de0b6b3a764000090056143107ffffffffffffffffffffffffffffffffffffffffffffffffdc702bd3a30fc00008212801590614309575068070c1cc73b00c800008213155b6008611b34565b61400681614de4565b60006001600160a01b038216156143aa576143a583836001600160a01b031663679aefce6040518163ffffffff1660e01b815260040160206040518083038186803b15801561436757600080fd5b505afa15801561437b573d6000803e3d6000fd5b505050506040513d601f19601f8201168201806040525081019061439f9190615876565b90613852565b610aba565b50670de0b6b3a764000092915050565b606081806020019051810190610aba9190615ac3565b6009546143df908260006152b4565b60095550565b6000610694826152e0565b600080828060200190518101906144079190615a73565b909590945092505050565b60008061442984614423818861150f565b906133c0565b90506144426709b6e64a8ec60000821015610132611b34565b6000614460614459670de0b6b3a76400008961307a565b839061417d565b9050600061447761447083613840565b8a90613192565b9050600061448e6144878a613840565b839061340d565b9050600061449c838361150f565b905060006144ac6126e489613840565b90506144b882826114c1565b9c9b505050505050505050505050565b600081806020019051810190610aba9190615a47565b60606000828060200190518101906144079190615a02565b60006060845167ffffffffffffffff8111801561451257600080fd5b5060405190808252806020026020018201604052801561453c578160200160208202803683370190505b5090506000805b88518110156146015761459c89828151811061455b57fe5b602002602001015161442389848151811061457257fe5b60200260200101518c858151811061458657fe5b602002602001015161150f90919063ffffffff16565b8382815181106145a857fe5b6020026020010181815250506145f76145f08983815181106145c657fe5b60200260200101518584815181106145da57fe5b602002602001015161340d90919063ffffffff16565b83906114c1565b9150600101614543565b50600061461289898986868a61531c565b905061462761462082613840565b879061340d565b9998505050505050505050565b60008061464b86614645868861307a565b85614023565b90506140068482613327565b60606000828060200190518101906144079190615b10565b60006060845167ffffffffffffffff8111801561468b57600080fd5b506040519080825280602002602001820160405280156146b5578160200160208202803683370190505b5090506000805b88518110156147635761471b8982815181106146d457fe5b60200260200101516147158984815181106146eb57fe5b60200260200101518c85815181106146ff57fe5b60200260200101516114c190919063ffffffff16565b9061307a565b83828151811061472757fe5b6020026020010181815250506147596145f089838151811061474557fe5b602002602001015185848151811061315457fe5b91506001016146bc565b50600061477489898986868a61543a565b90506000670de0b6b3a7640000821161478e5760006137bc565b6137bc877ffffffffffffffffffffffffffffffffffffffffffffffffff21f494c589c00008401613192565b600080828060200190518101906144079190615b4a565b6000806147e28461442381886114c1565b90506147fb6729a2241af62c0000821115610133611b34565b6000614812614459670de0b6b3a7640000896133c0565b9050600061483261482b83670de0b6b3a764000061150f565b8a9061340d565b905060006148426144878a613840565b90506000614850838361150f565b905060006144ac61486089613840565b84906133c0565b600081806020019051810190610aba9190615b2e565b6060600061488b83856133c0565b9050845167ffffffffffffffff811180156148a557600080fd5b506040519080825280602002602001820160405280156148cf578160200160208202803683370190505b50915060005b8551811015613189576148ee828783815181106145da57fe5b8382815181106148fa57fe5b60209081029190910101526001016148d5565b670de0b6b3a7640000026000806ec097ce7bc90715b34b9f1000000000808401907fffffffffffffffffffffffffffffffffff3f68318436f8ea4cb460f0000000008501028161495957fe5b05905060006ec097ce7bc90715b34b9f100000000082800205905081806ec097ce7bc90715b34b9f100000000081840205915060038205016ec097ce7bc90715b34b9f100000000082840205915060058205016ec097ce7bc90715b34b9f100000000082840205915060078205016ec097ce7bc90715b34b9f100000000082840205915060098205016ec097ce7bc90715b34b9f1000000000828402059150600b8205016ec097ce7bc90715b34b9f1000000000828402059150600d8205016ec097ce7bc90715b34b9f1000000000828402059150600f826002919005919091010295945050505050565b6000670de0b6b3a7640000821215614a8157614a77826ec097ce7bc90715b34b9f100000000081614a7157fe5b05614a44565b6000039050610bd4565b60007e1600ef3172e58d2e933ec884fde10064c63b5372d805e203c00000000000008312614ad257770195e54c5dd42177f53a27172fa9ec630262827000000000830592506806f05b59d3b2000000015b73011798004d755d3c8bc8e03204cf44619e0000008312614b0a576b1425982cf597cd205cef7380830592506803782dace9d9000000015b606492830292026e01855144814a7ff805980ff00840008312614b52576e01855144814a7ff805980ff008400068056bc75e2d63100000840205925068ad78ebc5ac62000000015b6b02df0ab5a80a22c61ab5a7008312614b8d576b02df0ab5a80a22c61ab5a70068056bc75e2d6310000084020592506856bc75e2d631000000015b693f1fce3da636ea5cf8508312614bc457693f1fce3da636ea5cf85068056bc75e2d631000008402059250682b5e3af16b18800000015b690127fa27722cc06cc5e28312614bfb57690127fa27722cc06cc5e268056bc75e2d6310000084020592506815af1d78b58c400000015b68280e60114edb805d038312614c305768280e60114edb805d0368056bc75e2d631000008402059250680ad78ebc5ac6200000015b680ebc5fb417461211108312614c5b57680ebc5fb4174612111068056bc75e2d631000009384020592015b6808f00f760a4b2db55d8312614c90576808f00f760a4b2db55d68056bc75e2d6310000084020592506802b5e3af16b1880000015b6806f5f17757889379378312614cc5576806f5f177578893793768056bc75e2d63100000840205925068015af1d78b58c40000015b6806248f33704b2866038312614cf9576806248f33704b28660368056bc75e2d63100000840205925067ad78ebc5ac620000015b6805c548670b9510e7ac8312614d2d576805c548670b9510e7ac68056bc75e2d6310000084020592506756bc75e2d6310000015b600068056bc75e2d63100000840168056bc75e2d631000008086030281614d5057fe5b059050600068056bc75e2d63100000828002059050818068056bc75e2d63100000818402059150600382050168056bc75e2d63100000828402059150600582050168056bc75e2d63100000828402059150600782050168056bc75e2d63100000828402059150600982050168056bc75e2d63100000828402059150600b820501600202606485820105979650505050505050565b6000614e297ffffffffffffffffffffffffffffffffffffffffffffffffdc702bd3a30fc00008312158015614e22575068070c1cc73b00c800008313155b6009611b34565b6000821215614e5d57614e3e82600003614de4565b6ec097ce7bc90715b34b9f100000000081614e5557fe5b059050610bd4565b60006806f05b59d3b20000008312614eb357507ffffffffffffffffffffffffffffffffffffffffffffffff90fa4a62c4e00000090910190770195e54c5dd42177f53a27172fa9ec630262827000000000614eff565b6803782dace9d90000008312614efb57507ffffffffffffffffffffffffffffffffffffffffffffffffc87d2531627000000909101906b1425982cf597cd205cef7380614eff565b5060015b6064929092029168056bc75e2d6310000068ad78ebc5ac620000008412614f65577fffffffffffffffffffffffffffffffffffffffffffffff5287143a539e0000009093019268056bc75e2d631000006e01855144814a7ff805980ff008400082020590505b6856bc75e2d6310000008412614fb7577fffffffffffffffffffffffffffffffffffffffffffffffa9438a1d29cf0000009093019268056bc75e2d631000006b02df0ab5a80a22c61ab5a70082020590505b682b5e3af16b188000008412615007577fffffffffffffffffffffffffffffffffffffffffffffffd4a1c50e94e78000009093019268056bc75e2d63100000693f1fce3da636ea5cf85082020590505b6815af1d78b58c4000008412615057577fffffffffffffffffffffffffffffffffffffffffffffffea50e2874a73c000009093019268056bc75e2d63100000690127fa27722cc06cc5e282020590505b680ad78ebc5ac620000084126150a6577ffffffffffffffffffffffffffffffffffffffffffffffff5287143a539e000009093019268056bc75e2d6310000068280e60114edb805d0382020590505b68056bc75e2d6310000084126150f5577ffffffffffffffffffffffffffffffffffffffffffffffffa9438a1d29cf000009093019268056bc75e2d63100000680ebc5fb4174612111082020590505b6802b5e3af16b18800008412615144577ffffffffffffffffffffffffffffffffffffffffffffffffd4a1c50e94e7800009093019268056bc75e2d631000006808f00f760a4b2db55d82020590505b68015af1d78b58c400008412615193577ffffffffffffffffffffffffffffffffffffffffffffffffea50e2874a73c00009093019268056bc75e2d631000006806f5f177578893793782020590505b68056bc75e2d631000008481019085906002908280020505918201919050600368056bc75e2d631000008783020505918201919050600468056bc75e2d631000008783020505918201919050600568056bc75e2d631000008783020505918201919050600668056bc75e2d631000008783020505918201919050600768056bc75e2d631000008783020505918201919050600868056bc75e2d631000008783020505918201919050600968056bc75e2d631000008783020505918201919050600a68056bc75e2d631000008783020505918201919050600b68056bc75e2d631000008783020505918201919050600c68056bc75e2d631000008783020505918201919050606468056bc75e2d63100000848402058502059695505050505050565b77ffffffffffffffffffffffffffffffffffffffffffffffff828116821b90821b198416179392505050565b600061530b7f38e9922e00000000000000000000000000000000000000000000000000000000610e39565b821480610694575061069482615546565b670de0b6b3a764000060005b875181101561542f57600085828151811061533f57fe5b60200260200101518511156153a257600061536861535c87613840565b8b858151811061315457fe5b9050600061537c828a868151811061458657fe5b9050600061538c61278288613840565b905061539883826114c1565b93505050506153c7565b8682815181106153ae57fe5b6020026020010151905080600014156153c75750615427565b60006153f08a84815181106153d857fe5b6020026020010151614715848d878151811061458657fe5b905061542261541b8a858151811061540457fe5b60200260200101518361385290919063ffffffff16565b8590613192565b935050505b600101615328565b509695505050505050565b670de0b6b3a764000060005b875181101561542f5760008486838151811061545e57fe5b602002602001015111156154d7576000670de0b6b3a7640000861161548457600061549e565b61549e670de0b6b3a764000087038b858151811061315457fe5b905060006154bc866154b6848c888151811061458657fe5b9061340d565b90506154ce818a868151811061458657fe5b925050506154fc565b8682815181106154e357fe5b6020026020010151905080600014156154fc575061553e565b60006155258a848151811061550d57fe5b6020026020010151614715848d87815181106146ff57fe5b905061553961541b8a858151811061540457fe5b935050505b600101615446565b50600090565b803561069481616074565b600082601f830112615567578081fd5b815161557a6155758261601c565b615ff5565b81815291506020808301908481018184028601820187101561559b57600080fd5b60005b848110156155ba5781518452928201929082019060010161559e565b505050505092915050565b600082601f8301126155d5578081fd5b813567ffffffffffffffff8111156155eb578182fd5b6155fe6020601f19601f84011601615ff5565b915080825283602082850101111561561557600080fd5b8060208401602084013760009082016020015292915050565b80516003811061069457600080fd5b80516004811061069457600080fd5b80356002811061069457600080fd5b60006020828403121561566c578081fd5b8135610aba81616074565b60008060408385031215615689578081fd5b823561569481616074565b915060208301356156a481616074565b809150509250929050565b6000806000606084860312156156c3578081fd5b83356156ce81616074565b925060208401356156de81616074565b929592945050506040919091013590565b600080600080600080600060e0888a031215615709578283fd5b873561571481616074565b9650602088013561572481616074565b95506040880135945060608801359350608088013561574281616089565b9699959850939692959460a0840135945060c09093013592915050565b60008060408385031215615771578182fd5b823561577c81616074565b946020939093013593505050565b60008060006060848603121561579e578081fd5b835167ffffffffffffffff808211156157b5578283fd5b818601915086601f8301126157c8578283fd5b81516157d66155758261601c565b80828252602080830192508086018b8283870289010111156157f6578788fd5b8796505b8487101561582157805161580d81616074565b8452600196909601959281019281016157fa565b508901519097509350505080821115615838578283fd5b5061584586828701615557565b925050604084015190509250925092565b600060208284031215615867578081fd5b81518015158114610aba578182fd5b600060208284031215615887578081fd5b5051919050565b600080600080600080600060e0888a0312156158a8578081fd5b873596506020808901356158bb81616074565b965060408901356158cb81616074565b9550606089013567ffffffffffffffff808211156158e7578384fd5b818b0191508b601f8301126158fa578384fd5b81356159086155758261601c565b8082825285820191508585018f878886028801011115615926578788fd5b8795505b8386101561594857803583526001959095019491860191860161592a565b509850505060808b0135955060a08b0135945060c08b013592508083111561596e578384fd5b505061597c8a828b016155c5565b91505092959891949750929550565b60006020828403121561599c578081fd5b81357fffffffff0000000000000000000000000000000000000000000000000000000081168114610aba578182fd5b6000602082840312156159dc578081fd5b8151610aba81616074565b6000602082840312156159f8578081fd5b610aba838361562e565b600080600060608486031215615a16578081fd5b615a20858561562e565b9250602084015167ffffffffffffffff811115615a3b578182fd5b61584586828701615557565b60008060408385031215615a59578182fd5b615a63848461562e565b9150602083015190509250929050565b600080600060608486031215615a87578081fd5b615a91858561562e565b925060208401519150604084015190509250925092565b600060208284031215615ab9578081fd5b610aba838361563d565b60008060408385031215615ad5578182fd5b615adf848461563d565b9150602083015167ffffffffffffffff811115615afa578182fd5b615b0685828601615557565b9150509250929050565b600080600060608486031215615b24578081fd5b615a20858561563d565b60008060408385031215615b40578182fd5b615a63848461563d565b600080600060608486031215615b5e578081fd5b615a91858561563d565b600080600060608486031215615b7c578081fd5b833567ffffffffffffffff80821115615b93578283fd5b8186019150610120808389031215615ba9578384fd5b615bb281615ff5565b9050615bbe888461564c565b8152615bcd886020850161554c565b6020820152615bdf886040850161554c565b6040820152606083013560608201526080830135608082015260a083013560a0820152615c0f8860c0850161554c565b60c0820152615c218860e0850161554c565b60e08201526101008084013583811115615c39578586fd5b615c458a8287016155c5565b9183019190915250976020870135975060409096013595945050505050565b600060208284031215615c75578081fd5b5035919050565b600060208284031215615c8d578081fd5b8151610aba81616089565b60008060408385031215615caa578182fd5b8251615cb581616089565b6020939093015192949293505050565b6000815180845260208085019450808401835b83811015615cf457815187529582019590820190600101615cd8565b509495945050505050565b9182527fffffffff0000000000000000000000000000000000000000000000000000000016602082015260240190565b6000828483379101908152919050565b60008251615d51818460208701616048565b9190910192915050565b7f190100000000000000000000000000000000000000000000000000000000000081526002810192909252602282015260420190565b6001600160a01b0391909116815260200190565b6020808252825182820181905260009190848201906040850190845b81811015615de65783516001600160a01b031683529284019291840191600101615dc1565b50909695505050505050565b600060208252610aba6020830184615cc5565b600060408252615e186040830185615cc5565b82810360208401526114948185615cc5565b901515815260200190565b92151583526020830191909152604082015260600190565b90815260200190565b9283526001600160a01b03918216602084015216604082015260600190565b9586526001600160a01b0394851660208701529290931660408501526060840152608083019190915260a082015260c00190565b60006060820185835260206060818501528186518084526080860191508288019350845b81811015615ef157615edf855161603c565b83529383019391830191600101615ecd565b505084810360408601528551808252908201925081860190845b81811015612b2f57615f1d835161603c565b85529383019391830191600101615f0b565b9485526020850193909352604084019190915260608301526001600160a01b0316608082015260a00190565b93845260ff9290921660208401526040830152606082015260800190565b6020810160038310615f8757fe5b91905290565b60ff91909116815260200190565b6000602082528251806020840152615fba816040850160208701616048565b601f01601f19169190910160400192915050565b6000838252604060208301526127226040830184615cc5565b918252602082015260400190565b60405181810167ffffffffffffffff8111828210171561601457600080fd5b604052919050565b600067ffffffffffffffff821115616032578081fd5b5060209081020190565b6001600160a01b031690565b60005b8381101561606357818101518382015260200161604b565b83811115611ee55750506000910152565b6001600160a01b0381168114610af357600080fd5b60ff81168114610af357600080fdfea2646970667358221220f3e846768ebc33c6d8e169fcf2f4abe52f0302d4855b4e2d510be22fd2542d2164736f6c63430007010033",
  "devdoc": {
    "kind": "dev",
    "methods": {
      "create(string,string,address[],uint256[],address[],uint256,address,bytes32)": {
        "details": "Deploys a new `WeightedPool`."
      },
      "disable()": {
        "details": "Disable the factory, preventing the creation of more pools. Already existing pools are unaffected. Once a factory is disabled, it cannot be re-enabled."
      },
      "getActionId(bytes4)": {
        "details": "Returns the action identifier associated with the external function described by `selector`."
      },
      "getCreationCode()": {
        "details": "Returns the creation code of the contract this factory creates."
      },
      "getCreationCodeContracts()": {
        "details": "Returns the two addresses where the creation code of the contract crated by this factory is stored."
      },
      "getPauseConfiguration()": {
        "details": "Returns the current `TemporarilyPausable` configuration that will be applied to Pools created by this factory. `pauseWindowDuration` will decrease over time until it reaches zero, at which point both it and `bufferPeriodDuration` will be zero forever, meaning deployed Pools will not be pausable."
      },
      "isDisabled()": {
        "details": "Check whether the derived factory has been disabled."
      },
      "isPoolFromFactory(address)": {
        "details": "Returns true if `pool` was created by this factory."
      }
    },
    "version": 1
  },
  "userdoc": {
    "kind": "user",
    "methods": {
      "getAuthorizer()": {
        "notice": "Returns the Authorizer"
      },
      "getVault()": {
        "notice": "Returns the Balancer Vault"
      }
    },
    "version": 1
  },
  "storageLayout": {
    "storage": [
      {
        "astId": 5635,
        "contract": "contracts/WeightedPoolFactory.sol:WeightedPoolFactory",
        "label": "_isPoolFromFactory",
        "offset": 0,
        "slot": "0",
        "type": "t_mapping(t_address,t_bool)"
      },
      {
        "astId": 5637,
        "contract": "contracts/WeightedPoolFactory.sol:WeightedPoolFactory",
        "label": "_disabled",
        "offset": 0,
        "slot": "1",
        "type": "t_bool"
      }
    ],
    "types": {
      "t_address": {
        "encoding": "inplace",
        "label": "address",
        "numberOfBytes": "20"
      },
      "t_bool": {
        "encoding": "inplace",
        "label": "bool",
        "numberOfBytes": "1"
      },
      "t_mapping(t_address,t_bool)": {
        "encoding": "mapping",
        "key": "t_address",
        "label": "mapping(address => bool)",
        "numberOfBytes": "32",
        "value": "t_bool"
      }
    }
  }
}